:020000040800F2
:10000000E80A00209D010008212300087F1D000848
:10001000591F0008A9020008312D00080000000047
:10002000000000000000000000000000752700082C
:10003000D103000800000000F5260008A5270008ED
:10004000B7010008B7010008B7010008B7010008B0
:10005000B7010008B7010008B7010008B7010008A0
:10006000B7010008B7010008B7010008B701000890
:10007000B7010008B7010008B7010008B701000880
:10008000B7010008B7010008B7010008B701000870
:10009000AD020008B7010008B7010008B701000869
:1000A000B7010008B7010008B7010008B701000850
:1000B0005D280008B7010008B7010008B701000873
:1000C000B7010008B7010008B7010008B701000830
:1000D000B7010008092D0008B7010008B7010008A2
:1000E000B7010008B7010008B7010008B701000810
:1000F000B7010008B7010008B7010008B701000800
:10010000B7010008B7010008B7010008B7010008EF
:10011000B7010008B7010008B7010008B7010008DF
:10012000B7010008B701000821030008B701000863
:10013000B70100080000000000000000B70100083F
:10014000B7010008B7010008B7010008B7010008AF
:10015000B7010008B7010008B7010008B70100089F
:10016000B7010008B7010008B7010008B70100088F
:10017000B7010008B70100080000000000000000FF
:10018000B7010008B7010008DFF80CD000F07AF8DA
:1001900000480047B52D0008E80A002006488047BF
:1001A00006480047FEE7FEE7FEE7FEE7FEE7FEE75C
:1001B000FEE7FEE7FEE7FEE74128000889010008A8
:1001C0002DE9F05F0546002092469B46884606468C
:1001D000814640241BE0284641464746224600F01F
:1001E00041F853465A46C01A914110D31146184659
:1001F000224600F028F82D1A67EB01084F462246E8
:100200000120002100F01FF817EB00094E41201ECD
:10021000A4F10104DFDC484631462A464346BDE8E6
:10022000F09FD2B201E000F8012B491EFBD27047CB
:100230000022F6E710B513460A4604461946FFF7B2
:10024000F0FF204610BD202A04DB203A00FA02F11C
:10025000002070479140C2F1200320FA03F31943B4
:1002600090407047202A04DB203A21FA02F0002156
:10027000704721FA02F3D040C2F1200291400843B6
:1002800019467047064C074D06E0E06840F0010350
:1002900094E8070098471034AC42F6D3FFF778FF94
:1002A000982E0008B82E0008FEE7000010B5094897
:1002B00000F09BFE084B094A0021094800F089F92B
:1002C00006480549891E00880880BDE8104004489A
:1002D00000F0F3B9CC0300201C000020B80400207B
:1002E000A403002010B50D4800F0B6FB0B48002118
:1002F00028380122016041608160C160C0E90612B6
:1003000041614162026201610146283000F0DAF881
:10031000BDE810400221014800F05DB8A4030020B0
:10032000014800F0DFBB00005804002001681823DA
:10033000CAB2103AB2FBF3F2054B6FF30901032A7C
:100340009B5CC36500D9091D8165084670470000A4
:10035000782E000810B5014600208B698A6A4FF09C
:10036000C07453B1B3F5005F15D072B1012A0CD03F
:10037000022A0AD0032A09D104E01AB1012A06D0C0
:10038000022A03D1C96AC90100D5012010BDC96A7A
:10039000A142FAD010BD002AF7D0012AF2D0022AD9
:1003A000F3D0032AF3D010BD30B50468256825F4D6
:1003B00080252560046863608368402B036803D050
:1003C00099600068C26030BD9A600068C16030BD4D
:1003D000704772B6FEE790F82020012A07D0022A63
:1003E00005D0416A41F480214162012070470068D4
:1003F00042690A43426100207047F0B590F82050EE
:100400000468A468012D05D0022D03D0416A41F48F
:10041000802153E014F0406F01D1E5004BD5C4F3C7
:100420000164022C03D9416A41F4000146E0012530
:10043000A5401D608D684FF4C0739DB1CE683543F3
:100440004E6845EAC605066803EB0417F5514FF4FC
:10045000C275076805EB04150E697E51097D0129F7
:1004600005D009E00E88CD6845EA4655EBE70168FE
:100470004E5946F480764E511179D2F805504FF41A
:10048000C67641EA0525016806EB04168D51117800
:10049000D2F801204FF4C47541EA0221026805EB4D
:1004A00004155151006803EB0411425842F0010257
:1004B00042500020F0BD416A41F400114162012028
:1004C000F0BD000010B590F82020012A07D0022AC4
:1004D00005D0416A41F480214162012010BD3B48B2
:1004E000D0F8002242F00102C0F80022D0F8002229
:1004F00022F47C52C0F80022D0F800224B6A42EA73
:100500000322C0F800220A7D02F01F0301229A4054
:10051000D0F81C329343C0F81C32CB69B3B9D0F881
:100520000C329343C0F80C328C894B6864F31F4340
:100530004C6900EBC404C4F840320C890B6864F3C6
:100540001F434C6900EBC404C4F84432CB69012B4F
:1005500016D1D0F80C321343C0F80C320C884B681B
:1005600064F31F434C6900EBC404C4F840320C89A7
:10057000CB6864F31F434C6900EBC404C4F84432F5
:100580008B69002BD0F804320ED01343C0F804322C
:100590000B69002BD0F8143208D01343C0F8143282
:1005A000096A012904D008E09343EFE79343F5E794
:1005B000D0F81C121143C0F81C12D0F8001221F020
:1005C0000101C0F80012002010BD000000640040CE
:1005D000704730B590F82040012C05D0022C03D094
:1005E000416A41F480215DE00468002955D0246906
:1005F000A40754D04FF4D874056804EB01142D59A6
:1006000015F00405956005682D594ED0ED0855602C
:1006100005682C5904F00204D4604FF4DA740568BC
:1006200004EB01142D5905F00F05156105682D59CE
:10063000C5F30725956105682C59240C54614FF4C6
:10064000DC72046802EB0112A4581C700468A45800
:10065000240A5C700468A458240C9C700468A25896
:10066000120EDA704FF4DE72046802EB0112A45825
:100670001C710468A458240A5C710468A458240CF2
:100680009C710468A258120EDA71006881B1016988
:1006900041F020010161002030BDE468A8E7416A13
:1006A00041F400114162012030BD6D0D1560AFE7CE
:1006B000C16841F02001C160EDE72DE9F05F05461A
:1006C000006800244669D0F804908768D0F80CB020
:1006D000D0F810A0D0F81880F10748D0F90714D04E
:1006E00001218160B80703D5284600F0E2F90CE04B
:1006F000780702D54FF4006407E0380702D54FF4BD
:10070000805402E0284600F0D3F9F80516D5296890
:100710004FF480708860B80503D5284600F0CBF907
:100720000CE0780502D544F4005407E0380502D502
:1007300044F4804402E0284600F0BCF9F80316D5E2
:1007400029684FF480308860B80303D5284600F04C
:10075000B4F90CE0780302D544F4004407E0380310
:1007600002D544F4803402E0284600F0A5F93007B1
:1007700007D55FEACB6004D52968102044F40074E3
:10078000C86070074FF0080707D55FEA0B7004D503
:100790002868C760284600F059F9B00706D52868D0
:1007A000C068800702D0284600F051F9700607D5CE
:1007B0005FEACA6004D52968102044F480640861A7
:1007C000B00607D55FEA0A7004D528680761284695
:1007D00000F03EF9F00606D528680069800702D0CF
:1007E000284600F036F9B00308D55FEAC96005D5A0
:1007F000296810204860284600F02CF9F00307D53E
:100800005FEA097004D528684760284600F056F969
:10081000300446D55FEA497040D5F00504D55FEA5B
:10082000C87001D044F00104B00504D55FEA8870B7
:1008300001D544F00204700504D55FEA487001D583
:1008400044F00404300529D518F0700F26D008F0C4
:100850007000402815D006DC102809D020280AD0C6
:10086000302816D10AE050280ED0602811D10EE0B1
:1008700044F008040DE044F010040AE044F02004C1
:1008800007E044F0400404E044F0800401E044F454
:1008900080742868816921F07001816129680420D1
:1008A0004860002C05D0686A204368622846FFF73C
:1008B0008FFEBDE8F09F70B5040003D094F82000CF
:1008C00010B104E0012070BD204600F081F82068DE
:1008D000016821F00201016000F058FB0546052681
:1008E00004E000F053FB401B0A2811D82068406840
:1008F0008007F6D42068016841F00101016000F032
:1009000045FB05460BE000F041FB401B0A2806D9D9
:10091000606A40F40030606284F82060D2E72068AA
:100920004068C007EFD0207E0128206801683DD0D4
:1009300021F080010160607E01282068016838D0C4
:1009400021F040010160A07E01282068016833D0B9
:1009500021F020010160E07E0128206801682ED08E
:1009600041F010010160207F01282068016829D032
:1009700021F008010160607F01282068016824D00F
:1009800021F004010160D4E902010843D4E9041212
:10099000114308436168491E08432168C86100206B
:1009A0006062012084F82000002070BD41F08001C9
:1009B000C0E741F04001C5E741F02001CAE721F05E
:1009C0001001CFE741F00801D4E741F00401D9E775
:1009D00010B586B0044614216846FFF729FC184973
:1009E0002068884229D117480021026842F000722D
:1009F0000260006800F0007005901248103802682C
:100A000042F001020260006800F0010005904FF41E
:100A1000C05000900220CDE901010320039009207D
:100A200004906946084800F0CFF900220121142003
:100A300000F04AFB142000F039FB06B010BD0000A6
:100A40000064004040380240000002407047704798
:100A5000704770477047000070B5044690F820005A
:100A6000012804D0606A40F40020606218E002208F
:100A700084F820002068016821F00101016000F085
:100A800085FA05460EE000BF00F080FA401B0A28F8
:100A900008D9606A40F400306062052084F82000C4
:100AA000012070BD20684068C007EDD1606270BD54
:100AB000704770477047704770477047704790F8AD
:100AC0003510022903D0802141650120704705219E
:100AD00080F835100068016821F0010101600020F4
:100AE000704700002DE9F84304464FF00009CDF8A7
:100AF000009063484FF41651A56D0068B0FBF1F704
:100B00002E6894F85C10082000FA01F131420FD0F1
:100B100021680A6852070BD50A6822F004020A60AD
:100B200094F85C108840A860606D40F0010060653A
:100B300094F85C104FF0010808FA01F0304208D038
:100B400021684969090604D5A860606D40F002007B
:100B5000606594F85C1004208840304208D0216819
:100B60000968890704D5A860606D40F004006065DD
:100B700094F85C1010208840304218D02168096831
:100B8000090714D5A86020680168490304D50068E6
:100B9000000308D5A16C07E00168C90503D401680A
:100BA00021F008010160216C09B12046884794F8C2
:100BB0005C1020208840304231D021680968C90685
:100BC0002DD5A86094F8350005282068016806D066
:100BD000490347D5006800031DD4616C1CE021F077
:100BE000160101602068416921F080014161206C9B
:100BF00008B9A06C20B12068016821F008010160EB
:100C000094F85C103F208840A86084F8349084F801
:100C10003580216D1FE0E16B09B120468847606D8A
:100C200000282BD0606DC00714D0052084F8350053
:100C30002068016821F0010101600098401C0090CB
:100C4000B84203D820680068C007F6D184F8349011
:100C500084F83580E16C002910D001B02046BDE851
:100C6000F04308470168C905D5D4016821F0100197
:100C7000016084F8349084F83580CCE7BDE8F883CF
:100C8000380000202DE9F041044600F07FF90646C7
:100C90005CB1002584F83450022084F835002068C7
:100CA000016821F0010101600DE00120BDE8F08143
:100CB00000F06CF9801B052805D920206065032011
:100CC00084F83500F2E720680068C007F0D1226898
:100CD000116820480140D4E901031843D4E90336E0
:100CE0003343184363691843A3691843E3691843FE
:100CF000236A18430843616A042903D1D4E90B131A
:100D000019430843106020684069666A20F00701B3
:100D100030460E43012704280CD1A06A0643E06A3E
:100D200040B12046FFF716FB20B14020606584F8F3
:100D30003570BAE7206846612046FFF7F7FA94F865
:100D40005C203F2191408160656584F8357000200A
:100D5000ACE700003F8010F02DE9F0410446866DBD
:100D600090F83400002501280DD0012084F83400CB
:100D700094F835700020012F07D084F83400022544
:100D80002846BDE8F0810220FBE7022784F8357091
:100D900060652046FFF708FB94F85C103F20884010
:100DA000B0602068016841F016010160206C20B13C
:100DB0002068016841F0080101602068016841F085
:100DC00001010160DCE700002DE9F84F00224FF03F
:100DD000010803254FF00F0E0B6808FA02F42340B8
:100DE000A3426ED14E68012E05D0022E03D0112EE3
:100DF00001D0122E12D186684FEA420C05FA0CF788
:100E0000BE43CF6807FA0CF7374387604668A643AE
:100E10000C79C4F30014944034434460C66857000E
:100E200005FA07FC8C6826EA0C06BC403443C46013
:100E30004C68022C01D0122C13D1D40800EB84048E
:100E4000A346D4F8209054074FEAD46A0EFA0AF663
:100E500029EA06090E6906FA0AF646EA0906CBF8F7
:100E6000206006680C7926EA0C0604F00304BC40F6
:100E7000344304604C68E40065D5364C266846F47B
:100E800080462660246822F0030604F4804400941F
:100E9000314C3444A446D4F808489607370F0EFA6C
:100EA00007F6B4432D4EB04201D1002624E02C4E6B
:100EB000B04201D101261FE02A4EB04202D10226E3
:100EC0001AE040E0284EB04201D1032614E0274E3C
:100ED000B04201D104260FE0254EB04201D10526D3
:100EE0000AE0244EB04201D1062605E0224EB0426F
:100EF00001D1072600E00826BE402643CCF808684A
:100F00001E4E34684F689C43FF0300D51C43346079
:100F10001A4C241D26684F689E43BF0300D51E430C
:100F20002660164E083634684F689C43FF0200D591
:100F30001C433460114E0C3634684F689C43BF022A
:100F400000D51C433460521C102AFFF445AFBDE8A5
:100F5000F88F000044380240003001400000024099
:100F60000004024000080240000C02400010024051
:100F70000014024000180240001C0240003C0140E6
:100F80000AB1816170470904FBE7000001488068ED
:100F9000704700002C00002070B5040011D02168BB
:100FA0004CF6CC400860216845F255500860D4E901
:100FB000000141602168A0688860FFF7E7FF0546EF
:100FC00009E0012070BD00BFFFF7E0FF401B3028A3
:100FD00001D9032070BD2068C0680028F4D12168C1
:100FE0004AF6AA200860002070BD00684AF6AA21CF
:100FF00001600020704700000248816802781144B7
:10100000816070472C0000200B4810B5016841F446
:1010100000710160016841F480610160016841F480
:1010200080710160032000F06FF8002000F006F8E6
:1010300000F024F8002010BD003C024070B50D4DBA
:1010400004464FF47A712878B1FBF0F00A49096838
:10105000B1FBF0F000F002FB48B9102C07D20022DF
:101060002146501E00F030F800206C6070BD012059
:1010700070BD00002C000020380000200A4808B590
:10108000016841F480410160006800F480400090F4
:101090000548001F016841F080510160006800F0C0
:1010A0008050009008BD000044380240002809DB51
:1010B00000F01F02012191404009800000F1E02072
:1010C000C0F8001170470000F0B40E4B1B680C46CE
:1010D000C3F30223C3F10705042D00D90425191D0C
:1010E000072901D2002300E0DB1E012606FA05F1E4
:1010F000491E214099409E40761E16403143F0BC67
:1011000001F038BE0CED00E0064900F00702086867
:101110004FF6FF03184040EA0220034A10430860DC
:10112000704700000CED00E00000FA052DE9F047E3
:101130000E46050065D0DFF81481D8F80000F7B23C
:1011400000F00F00B04207D288F80070D8F8000015
:1011500000F00F00B04254D128683D4C810712D5F1
:10116000400703D5206840F4E0502060287800074D
:1011700003D5206840F4604020602068A96820F012
:10118000F000084320602878C0072DD030496868F7
:101190000839012812D0022813D0032811D0096879
:1011A000890700292DDA216821F00301014321601C
:1011B000FFF7ECFE814641F2883A0EE009688903A8
:1011C000EFE709688901ECE7FFF7E0FEA0EB090112
:1011D000514502D90320BDE8F0872068696800F016
:1011E0000C00B0EB810FEFD1D8F80010404601F0B1
:1011F0000F01B14207D90770006800F00F00B0423C
:1012000001D00120E7E72878400705D52068E96884
:1012100020F4E050084320602878000706D52068B5
:10122000296920F4604040EAC100206000F038F8ED
:101230002168084AC1F30311515CC840064908609F
:1012400006480068FFF7FAFE0020C4E7003C0240B1
:1012500008380240802E00083800002030000020AE
:101260000448054900680968044AC1F38221515CB9
:10127000C84070473800002008380240902E00080F
:101280000448054900680968044AC1F34231515CC9
:10129000C84070473800002008380240902E0008EF
:1012A000154810B5006810F00C02144813D0411016
:1012B000042A0FD0082A0ED10F4C241F226823685D
:1012C00002F03F025B0207D52068C0F38810A0FB44
:1012D000010106E0084610BD2168C1F38811A1FB99
:1012E00000010023FEF76CFF2168C1F30141491C96
:1012F0004900B0FBF1F010BD083802400024F400B2
:101300002DE9F84F04006ED02078DFF83C93C00739
:10131000A9F104054AD009F104000168C1F3810173
:10132000012908D00068C0F3810002280AD1D9F849
:101330000000400206D52868800337D56068002881
:10134000E1D033E06068B0F5803F10D0B0F5A02F59
:10135000286810D020F480302860286820F480208D
:1013600028606068A8B1FFF711FE06460DE0286806
:1013700040F48030F4E740F480202860F7E700BFB5
:10138000FFF704FE801B642873D828688003F7D514
:101390000CE0FFF7FBFD064605E000BFFFF7F6FD9A
:1013A000801B6428F0D828688003F7D42078DFF801
:1013B0009C8280074FF0000A3ED5A348001D0168BB
:1013C00011F00C0F08D00068C0F3810002280BD187
:1013D000D9F80000400207D42868800716D5E068D5
:1013E000012800D112E02BE1E068B8B10120C8F873
:1013F0000000FFF7CBFD064605E000BFFFF7C6FD86
:10140000801B0228C0D828688007F7D52868216982
:1014100020F0F80040EAC10028600DE0C8F800A004
:10142000FFF7B4FD064604E0FFF7B0FD801B02287D
:101430001FD828688007F7D42078000722D5824E6D
:1014400083486169703671B101210160FFF79EFD2B
:10145000074604E0FFF79AFDC01B022809D8306850
:101460008007F7D50EE0C0F800A0FFF78FFD074614
:1014700005E082E0FFF78AFDC01B02287DD83068B6
:101480008007F7D42078400768D5DFF8BCB1002783
:101490000BF13C0BDBF80000C0000BD4DBF80010B4
:1014A00041F08051CBF80010DBF80000012700F07C
:1014B00080500090674E3068C00510D4306840F40A
:1014C00080703060FFF762FD009005E0FFF75EFD81
:1014D0000099401A022850D83068C005F6D55A4EF7
:1014E000A0686C3601280FD00528306810D020F095
:1014F00001003060306820F004003060A068B8B1AE
:10150000FFF744FD00900FE0306840F00100F4E781
:1015100040F004003060F7E7FFF738FD0099411A0A
:1015200041F28830814266D830688007F4D50EE0F9
:10153000FFF72CFD009007E0FFF728FD0099411A06
:1015400041F28830814256D830688007F4D42FB1F8
:10155000DBF8001021F08051CBF80010A069C8B36F
:101560003949091D0968C1F3810102294AD00228BD
:10157000504607D0C8F8600000E03CE0FFF706FDE9
:1015800004463BE04746C8F86000FFF7FFFC06460C
:1015900005E000BFFFF7FAFC801B02282BD8286863
:1015A0008001F7D4D4E907010843A16A2A4A49080F
:1015B00002EB0141626A41EA8211084394F82C105F
:1015C00040EA0161C9F8001001203866FFF7DEFC2F
:1015D000044606E036E000BFFFF7D8FC001B0228F7
:1015E00009D828688001F7D52CE000BFFFF7CEFCB2
:1015F000001B022802D90320BDE8F88F286880016B
:10160000F4D41FE00128F7D0D9F80000E26900F413
:101610008001914214D1226A00F03F0191420FD122
:1016200047F6C071626A0140914209D1A26A00F492
:101630004031914204D1E16A00F07060884201D0EB
:101640000120D9E70020D7E70438024000004742D4
:10165000800E4742007000400000FFFF10B5401EA2
:10166000B0F1807F01D3012010BD4FF0E024606114
:101670000F21601701F07EFB0020A0610720206190
:10168000002010BD7047704770B590F83C20012ACB
:1016900032D0012480F83C40022280F83D200368CB
:1016A0005A689D6822F070060A6832435A60134BEC
:1016B00002689A4214D0B2F1804F11D0104B9A4276
:1016C0000ED0104B9A420BD00F4B9A4208D00F4BC2
:1016D0009A4205D00E4B9A4202D00E4B9A4204D148
:1016E000496825F080031943916080F83D4000214E
:1016F00080F83C10084670BD022070BD000001401B
:101700000004004000080040000C004000040140BC
:10171000004001400018004010B5040003D094F8C8
:101720003D0010B107E0012010BD002084F83C000E
:10173000204600F00DF8022084F83D00211D2068AD
:1017400001F09EF8012084F83D00002010BD00004B
:1017500008B50068B0F1804F12D10A48016841F025
:10176000010101600068002200F0010000900221E8
:101770001C20FFF7A9FCBDE808401C20FFF796BC21
:1017800008BD0000403802400168CA6842F001020A
:10179000CA600068816801F00701062903D001686A
:1017A00041F0010101600020704770B5044690F8D7
:1017B0003C00012817D0012584F83C50022084F811
:1017C0003D002068826822F0770222F47F42826026
:1017D0000868502830D00DDC20284DD005DC98B3A7
:1017E00010283BD148E0022070BD302844D040286A
:1017F00034D139E0602828D0702806D0B0F5805F59
:101800002CD0B0F5005F29D10AE0CB68D1E90121E5
:10181000206801F099F82068816841F0770109E0BB
:10182000CB68D1E90121206801F08EF82068816839
:1018300041F48041816011E0CA684968206801F084
:1018400095F85021206807E016E0CA6849682068CA
:1018500001F09DF86021206801F080F884F83D5087
:10186000002084F83C0070BDCA684968206801F017
:101870007DF840212068EFE7226801461046EBE73B
:10188000704770B50446006801694FF00005C94310
:10189000890715D4C168C943890711D4E91E0161BC
:1018A00001202077206880698007204602D0FFF75A
:1018B000E7FF04E000F098F8204600F096F825775E
:1018C00020680169C943490717D4C168C94349075A
:1018D00013D46FF004010161022020772068806931
:1018E00010F4407F204602D0FFF7CAFF04E000F06A
:1018F0007BF8204600F079F8257720680169C94314
:10190000090716D4C168C943090712D46FF008014A
:101910000161042020772068C0698007204602D03A
:10192000FFF7AEFF04E000F05FF8204600F05DF83E
:10193000257720680169C943C90617D4C168C9431E
:10194000C90613D46FF010010161082020772068C8
:10195000C06910F4407F204602D0FFF791FF04E0F9
:1019600000F042F8204600F040F825772068016931
:10197000C943C90708D1C168C943C90704D1891E31
:101980000161204600F032F820680169C943090668
:1019900009D4C168C943090605D46FF0800101610B
:1019A0002046FFF76FFE20680169C943490609D444
:1019B000C168C943490605D46FF040010161204662
:1019C00000F015F820680169C94389060BD4C16885
:1019D000C943890607D46FF0200101612046BDE8A4
:1019E0007040FFF750BE70BD70477047704770473A
:1019F0007047000070B5026804461068D1685369EA
:101A000010F00F0F52D003F0010501F490762E4331
:101A10005FD0C20705D0CA0503D5E26B42F00102D0
:101A2000E263420705D5DA0703D0E26B42F0020217
:101A3000E263820705D5DA0703D0E26B42F00402C5
:101A4000E263020707D501F020022A4303D0E26BCC
:101A500042F00802E263E26B002A33D0800604D52C
:101A6000880602D5204601F00BF820684069E16B3A
:101A7000C0F38010090700D428B3204600F0E9FF26
:101A80002068416949061AD5416921F04001416148
:101A9000606BA0B11B490165606BFFF710F800286F
:101AA00010D0606B016DBDE870400847830610D50B
:101AB0008B060ED52046BDE8704000F0E1BF204601
:101AC000FFF796FF70BD2046FFF792FF0020E0630E
:101AD00070BD030606D50B0604D52046BDE8704050
:101AE00001F0AEB84006F3D54806F1D5D1682046DE
:101AF00021F04001D160202184F8391000F03EF936
:101B000070BD0000B329000870B5040004D094F83B
:101B10003900002510B106E0012070BD84F838506E
:101B2000204600F023F8242084F839002068C1689A
:101B300021F40051C160204600F0EEFF20680169E9
:101B400021F4904101612068416921F02A0141613D
:101B50002068C16841F40051C160E563202084F829
:101B6000390084F83A00002070BD000070B586B0DE
:101B7000064614216846FEF75BFB2449306888421C
:101B800042D123480025016841F01001016000683E
:101B900000F0100005901E481438016841F0010162
:101BA00001600068694600F0010005904FF4C060D4
:101BB00000900220CDE90105032003900720049046
:101BC0001448FFF701F9154C134820604FF00060EE
:101BD000C4E901054014C4E9035065614FF4403085
:101BE000A561C4E9075020466562FFF74BF808B1CC
:101BF000FEF7EFFB7463002211462520A663FFF772
:101C000063FA2520FFF752FA06B070BD00100140BC
:101C10004438024000000240406402405804002062
:101C20002DE9F843044690F83A00994616460D46C9
:101C3000202852D1BDB1B6B194F8380001284CD05B
:101C4000012084F838000027E763222084F83A0056
:101C50002C34FFF79BF924F8026B804624F80A6BBA
:101C600004F8387931E00120BDE8F883E08D401EAA
:101C7000E085A0684346B0F5805F4FF000024FF06A
:101C800020012046CDF8009004D001F00AF898B168
:101C90000320E9E701F005F80028F9D120690028C0
:101CA0002068406803D0C1B225F8011B0DE0C0F3E5
:101CB000080125F8021B08E0206900282068406818
:101CC00001D000F07F0005F8010BE08D0028CDD198
:101CD000202084F83A000020C6E70220C4E7000074
:101CE000F8B5044690F83A0020283CD1C1B3BAB305
:101CF00094F83800012836D0012084F83800A16219
:101D0000A2850025E563222084F83A00636B17481A
:101D1000D863636B16481864636B1648D864606BAD
:101D2000134605650846666B216802463046091D64
:101D3000FFF712F8206801684168009184F8385074
:101D4000C16841F48071C1602068416941F00101BE
:101D500041612068416941F0400141610020F8BDC6
:101D6000FFE70120FBE70220F9E700000D2A000849
:101D7000492A0008C3290008704770477047FEE7EA
:101D80000F4810B50D4901600621416000214FF454
:101D900000328160C0E9031212014261017641768E
:101DA00081760122C27601774177FEF784FD002813
:101DB00003D0BDE81040FEF70CBB10BD006400402E
:101DC000A4030020094808B5016841F480010160BE
:101DD0000068002200F48000009011463A20FFF7CE
:101DE00073F9BDE808403A20FFF760B93038024087
:101DF00070B586B014216846FEF71AFA1D48002512
:101E0000016841F080010160016801F080010591E5
:101E1000016841F004010160016801F004010591CD
:101E2000016841F002010160016801F002010591C1
:101E3000016841F00101016000680F4E00F00100EF
:101E40000590002203213046FFF79AF80320009006
:101E500001240221CDE90141039169463046FEF794
:101E6000B3FFCDE90045694604480294FEF7ACFF94
:101E700006B070BD30380240000802400004024045
:101E8000094810B5074901600021416008218160BF
:101E9000FFF782F8002803D0BDE81040FEF799BA9A
:101EA00010BD000000300040CC03002010B586B00B
:101EB00000241748009401940294039404944FF072
:101EC0008041059401605321C0E9011440F2E731DB
:101ED000C0E9031480218161FFF71EFC08B1FEF701
:101EE00078FA4FF48050009069460948FFF75DFC8E
:101EF00008B1FEF76EFA049404A905480594FFF7AB
:101F0000C3FB002801D0FEF764FA06B010BD000044
:101F1000D80300200E4810B50C4901600D494160FE
:101F20004FF48051816000214FF48062C0E90312B8
:101F30000422C0E90521C161FFF7E6FD002803D0B6
:101F4000BDE81040FEF745BA10BD0000001001408A
:101F500018040020A0860100FEE7000030B5002232
:101F6000014680F87420DFED773AB0EE633AF0EE88
:101F7000632A9FED754AF0EE631AB6EE000AB0EEE2
:101F8000442AB0EE441AF0EE440A103000F0CAF9C8
:101F9000B0EE633AF0EE632AB0EE442AF0EE631A34
:101FA000B0EE441AF0EE440AB1EE040A01F140002A
:101FB00000F0B8F9012381F86431B0EE633AF0EE35
:101FC000632AB0EE442AF0EE631AB0EE441AF0EE43
:101FD000440AB6EE000A01F5807000F0A3F9B0EEF5
:101FE000633AF0EE632AB0EE442AF0EE631AB0EEE4
:101FF000441AF0EE440AB1EE040A01F5987000F0BC
:1020000091F9022481F8DC41B0EE633AF0EE632AE4
:10201000B0EE442AF0EE631AB0EE441AF0EE440A31
:10202000B6EE000A01F5BC7000F07CF9B0EE633A40
:10203000F0EE632AB0EE442AF0EE631AB0EE441AD2
:10204000F0EE440AB1EE040A01F5D47000F06AF92A
:10205000032581F8EC50B0EE633AF0EE632AB0EE5F
:10206000442AF0EE631AB0EE441AF0EE440AB6EEDB
:10207000000A01F1880000F055F9B0EE633AF0EE85
:10208000632AB0EE442AF0EE631AB0EE441AF0EE82
:10209000440AB1EE040A01F1B80000F043F981F8F6
:1020A0002422B0EE633AF0EE632AB0EE442AF0EE5A
:1020B000631AB0EE441AF0EE440AB1EE040A01F5D8
:1020C000F87000F02FF981F8B432B0EE633AF0EE18
:1020D000632AB0EE442AF0EE631AB0EE441AF0EE32
:1020E000440AB1EE040A01F5207000F01BF981F8F2
:1020F000FC42B0EE633AF0EE632AB0EE442AF0EE12
:10210000631AB0EE441AF0EE440AB1EE040A01F587
:10211000327000F007F981F86C52BDE83040B0EE43
:10212000633AF0EE632AB0EE442AF0EE631AB0EEA2
:10213000441AF0EE440AB1EE040A01F50E7000F004
:10214000F1B8000000409C450000000010B5A1F56A
:1021500000710446013906D001290BD0022911D0A3
:10216000032921D116E00146104B114A04F5F07005
:1021700000F05EF80D4B0E4A04F1F00104F51C70FE
:1021800000F056F8094B0A4A04F5B47104F52E70B4
:1021900000F04EF804F1780104F50A70BDE8104033
:1021A000024B034A00F044B810BD00002400002098
:1021B0001C0000201C4A10B5137A5288012B0DD048
:1021C000022B0AD1A2F5806202EB8200400000EEF1
:1021D000100AB8EEC00A81ED1C0A10BD13490B8825
:1021E0001149A3F500730A8849884942114401EB5B
:1021F0008101013B15D00C4A012B548812882244DE
:10220000A2F5006202EB820203D0022B09D0032B5D
:10221000E3D100EE102A00BFB8EEC00A80ED100A2C
:1022200010BD00EE101AF7E7000000201A00002091
:102230002DE9F041054614481E461746007A0C4623
:10224000012812D002281CD12846FFF7B3FF3946D7
:10225000204600F01DF83146204600F07DF831465A
:10226000BDE8F041094800F086BA2846FFF7A2FF12
:102270003946284600F03CF83146284600F096F9E9
:10228000EDE7BDE8F081000000000020A40300207D
:1022900030B50A784FF6FF7303EA022202804B78CA
:1022A0001A4302808B781B021CB24480CB781C43FB
:1022B00044800B794FEA032383804D7943EA050379
:1022C00083808979817111D00189511A0BB2C1685B
:1022D00013F5805F1944C16002DA01F5005104E092
:1022E000B3F5805F02DDA1F50051C160028130BD10
:1022F0000A784FF6FF7303EA022202804B781A43F2
:1023000002808A7812024280CB781A4342800A798E
:10231000120282804B791A438280897981717047D9
:10232000FEE70000C0ED051A80ED0B3A80ED062AAD
:10233000C0ED082A80EC030A9FED060A80ED030A2F
:1023400080ED040A80ED070A80ED090A80ED0A0A93
:10235000704700000000000090ED030AD0ED1C0A59
:10236000B8EEC00A70EEC00AC0ED070A90ED090A87
:10237000F4EEC00AF1EE10FA01DD80ED070AD0EDAF
:10238000070AB1EE400AF4EEC00AF1EE10FA01D2EB
:1023900080ED070AD0ED070A9FED830AF5EEC00A2B
:1023A000F1EE10FA08DD90ED0A1AF4EEC10AF1EE32
:1023B00010FA01D280ED070AD0ED070AF5EEC00A47
:1023C000F1EE10FA08D290ED0A1AF4EEC10AF1EE1D
:1023D00010FA01DD80ED070A90ED0B1AD0ED070A27
:1023E00071EE201AC0ED0B1A90ED0C1AF4EEC11A22
:1023F000F1EE10FA01DD80ED0B1AD0ED0B1AB1EE03
:10240000411AF4EEC11AF1EE10FA01D280ED0B1A66
:1024100090ED081A30EEC11A80ED0D1AC0ED080AD1
:10242000D0ED041A90ED0B2A61EEA00AD0ED051A4A
:1024300041EE820AD0ED061A41EE810AC0ED0E0A85
:1024400090ED0F1AF4EEC10AF1EE10FA01DD80ED05
:102450000E1AD0ED0E1AF1EE410AF4EEE01AF1EE8A
:1024600010FA01D2C0ED0E0AB0F9022090ED0E1A5A
:1024700000EE902AF8EEE00A31EE601A80ED131AB1
:10248000D0ED150AB4EEE01AF1EE10FA01DDC0ED60
:10249000130A90ED131AF1EE600AB4EEE01AF1EEB1
:1024A00010FA02D3F0EE410A01E0C0ED130AF5EE96
:1024B000C00AF1EE10FA08DD90ED161AF4EEC10A2A
:1024C000F1EE10FA01D280ED130AD0ED130AF5EE09
:1024D000C00AF1EE10FA08D290ED161AF4EEC10A15
:1024E000F1EE10FA01DD80ED130AD0ED170A90ED40
:1024F000130A30EE801A80ED171AD0ED180AB4EEE8
:10250000E01AF1EE10FA01DDC0ED170A90ED171A8E
:10251000F1EE600AB4EEE01AF1EE10FA01D2C0ED6D
:10252000170AD0ED140A70EE600AC0ED190A80EDAA
:10253000140A90ED101AD0ED171A21EE000A90ED52
:10254000111A01EE210A90ED121A01EE200A80ED17
:102550001A0AD0ED1B0AB4EEE00AF1EE10FA01DD22
:10256000C0ED1A0A90ED1A1AB1EE600AB4EEC01A64
:10257000F1EE10FA02D3B0EE410A01E080ED1A0A42
:10258000BDEEC00A10F8743F10EE102A121201F8C6
:10259000132010ED030A0078BDEEC00A01EB4000E5
:1025A00010EE102A4270704700000000B0F90220BF
:1025B000D0ED100A00EE102AB8EEC00A70EEC00A84
:1025C000C0ED070A90ED090AF4EEC00AF1EE10FA28
:1025D00001DD80ED070AD0ED070AB1EE400AF4EE06
:1025E000C00AF1EE10FA01D280ED070AD0ED070A19
:1025F0009FED3F0AF5EEC00AF1EE10FA08DD90ED0E
:102600000A1AF4EEC10AF1EE10FA01D280ED070ABF
:10261000D0ED070AF5EEC00AF1EE10FA08D290EDFF
:102620000A1AF4EEC10AF1EE10FA01DD80ED070A94
:10263000D0ED0B0A90ED070A30EE801A80ED0B1AF0
:10264000D0ED0C0AB4EEE01AF1EE10FA01DDC0EDA7
:102650000B0A90ED0B1AF1EE600AB4EEE01AF1EEFF
:1026600010FA01D2C0ED0B0AD0ED080A70EE600A34
:10267000C0ED0D0A80ED080A90ED041AD0ED0B1A9A
:1026800021EE000A90ED051A01EE210A90ED061ADE
:1026900001EE200A80ED0E0AD0ED0F0AB4EEE00A3A
:1026A000F1EE10FA01DDC0ED0E0A90ED0E1AB1EE5A
:1026B000600AB4EEC01AF1EE10FA02D3B0EE410A8D
:1026C00001E080ED0E0ABDEEC00A10F8443F10EEA6
:1026D000102A121201F8132010ED030A0078BDEE43
:1026E000C00A01EB400010EE102A42707047000053
:1026F0000000000070470000002838D00188C1F3B6
:102700000A021B490A8042788378D20842EA4312BF
:10271000C2F30A024A808278C378920942EA8302AD
:10272000037942EA8322C2F30A028A80027943795A
:10273000520842EAC312C2F30A02CA8042799209DD
:102740000A724279C2F301124A72C2884A8102892E
:102750008A814289CA81027B0A74427B4A74827BE5
:102760008A82C27B4A82008AC8820120087670472A
:1027700000000020704700B587B04FF4007200924F
:10278000002308220492039302938DF814300A4622
:1027900006AB6946FDF731FE002801D0FDF719FEB2
:1027A00007B000BDFEF728BC30B593B030216846B5
:1027B000FDF73EFD14210CA8FDF73AFD1E4800254B
:1027C000016841F080510160006800F08050119074
:1027D0001A48016841F4804101600068022400F455
:1027E00080401190092000904FF48030019001202A
:1027F000CDE905048005079008AA0420A82182E8F5
:1028000013000B906846FEF77BFD08B172B6FEE739
:102810000CA90F2081E831004FF4A0500F904FF425
:102820008050109005210CA8FEF780FC002801D0F4
:1028300072B6FEE713B030BD403802400070004071
:102840000548016841F47001016003494FF00060E0
:10285000803908607047000088ED00E0054810B539
:1028600001880548FFF772FCBDE810400348FFF7F8
:1028700008B800001A00002050000020D8030020F3
:10288000F0B50268254C264D264E274F274B4FF0BA
:10289000804CA04209D0604507D0A84205D0B04284
:1028A00003D0B84201D0984204D122F0700E4A6899
:1028B00042EA0E02A0421BD0604519D0A84217D0B0
:1028C000B04215D0B84213D0984211D0184DA8424A
:1028D0000ED0184DA8420BD0174DA84208D0174D66
:1028E000A84205D0164DA84202D0164DA84203D1E9
:1028F00022F44075CA682A434D6922F080022A43B7
:1029000002608A68C2620A688262A04201D098426C
:1029100001D10969016301214161F0BD000001405D
:102920000004004000080040000C0040000401408A
:1029300000400140004401400048014000180040B0
:10294000001C00400020004010B5846842EA0322C9
:1029500024F47F440A432243826010BD826822F03F
:1029600070020A4342F007018160704710B5036AA4
:10297000046A24F001040462846924F0F00444EA47
:10298000021423F00A020A438461026210BD10B5EA
:10299000036A23F0100303628369046A23F470431B
:1029A00043EA023224F0A00343EA0111826101628A
:1029B00010BD10B5806B0021C185C184FFF718F8E8
:1029C00010BD70B5846B2068406994F83910C0F36D
:1029D000C0100025212904D118B1E584204600F05B
:1029E00046F82068406994F83A10C0F38010222914
:1029F00004D118B1E585204600F02BF8E06B40F0DB
:102A00001000E0632046FEF7F3FF70BD10B50146ED
:102A1000806B09680968C90513D40021C185016864
:102A2000CA6822F48072CA6001684A6922F0010211
:102A30004A6101684A6922F040024A61202180F817
:102A40003A10FFF799F910BD10B5806BFFF795F9B3
:102A500010BD0168CA6822F49072CA6001684A69B0
:102A600022F001024A61202180F83A107047016883
:102A7000CA6822F0C002CA60202180F8391070476D
:102A800010B590F83A10222901D0022010BD8168BB
:102A9000B1F5805F11D00169002901681FD0496834
:102AA00001F07F03816A4A1C82620B70C18D491E4E
:102AB0000904090CC18518D02BE00269816A002A3B
:102AC0000268526805D0D2B20A80816A491C8162CC
:102AD000ECE7C2F308020A80816A891CF7E74A68BA
:102AE000816A4B1C83620A70E0E70168CA6822F0C1
:102AF0002002CA600168CA6822F48072CA60016854
:102B00004A6922F001024A61202180F83A10FFF759
:102B100033F9002010BD00002DE9F04104460068A3
:102B20000169E26821F44051114301612169A06803
:102B3000E26908436169114308432168CA6849F2A0
:102B40000C639A430243CA6020684169A26921F478
:102B5000407111434161E069192764253226B0F5BF
:102B6000004F354A354920684FF0000806D08842AA
:102B700001D0904236D1FEF783FB35E0884201D088
:102B8000904202D1FEF77CFB01E0FEF769FB616831
:102B90004A18A0FB070148EB0803FDF711FB0146AB
:102BA000B0FBF5F00201B1FBF5F06FF018035843EC
:102BB00001EB800006EBC000B0FBF5F000F0F80080
:102BC00002EB4002B1FBF5F0584301EB800006EB4D
:102BD000C000B0FBF5F000F00700216810448860E9
:102BE000BDE8F081FEF73CFB61688B0F8A00A0FB1B
:102BF0000701FDF7E5FA0146B0FBF5F06FF01802AA
:102C0000504301EB800006EB0010B0FBF5F000F044
:102C1000F002B1FBF5F002EB0012B1FBF5F06FF042
:102C20001803584301EB800006EB0010B0FBF5F0F1
:102C300000F00F00D1E70000001401400010014037
:102C400090F83910212901D0022070478168B1F530
:102C5000805F016A0BD04A1C0262026809785160E9
:102C6000C18C491E0904090CC1840ED017E00988E3
:102C70000268C1F30801516001690029016A02D0AC
:102C8000491C0162ECE7891CFBE70168CA6822F075
:102C90008002CA600068C16841F04001C160002044
:102CA00070472DE9F041984617460E460446069DAA
:102CB0001DE0681C1BD02DB1FEF768F9A0EB0800E1
:102CC000A84214D92068C16821F4D071C16020687D
:102CD000416921F001014161202084F8390084F824
:102CE0003A00002084F838000320BDE8F081206815
:102CF000006836EA000004D00020B842D9D0002095
:102D0000F3E70120F9E7000010B54FF47A731222BF
:102D100005490648FEF784FF0348FFF7EDFCBDE8D0
:102D200010400248FEF766BED404002018040020BC
:102D3000FEE7000010B5122000F068F80B4C206090
:102D4000122000F063F8606009480068C16841F033
:102D50001001C160002020721220608121680246AB
:102D6000BDE810400248FEF7BBBF00004400002051
:102D7000180400200907090E002804DB00F1E020F8
:102D800080F80014704700F00F0000F1E02080F898
:102D9000141D704702E008C8121F08C1002AFAD1AA
:102DA00070477047002001E001C1121F002AFBD1CB
:102DB00070470000FEF728F9FFF7BCFFFFF7F4FCAF
:102DC000FFF716F8FEF7FEFFFEF7DAFFFFF76EF8E3
:102DD000FFF7A0F8FFF754F809496FF00100096800
:102DE00008610748FEF7D0FCFDF77CFA0548FFF7BD
:102DF000B5F805480068C16841F01001C160FEE700
:102E0000D80300205000002018040020F0B50B303B
:102E1000154D20F007010024144A0FE003688B428F
:102E20000BD38B4205D95E1A43184768C3E9006784
:102E300000E04368136002C004E0021D106800282F
:102E4000ECD12046002802D1286808B10020F0BD4E
:102E5000064A07481060074A121A22F00702C0E922
:102E6000002401202860D7E7400000203C0000201B
:102E7000EC040020E80600200006101600061016DC
:102E8000000000000000000001020304060708091A
:102E90000000000001020304B82E0008000000201A
:102EA00044000000942D0008FC2E0008440000207F
:102EB000A40A0000A42D000800040004000400047B
:102EC00002020000000000000000000000000004FA
:102ED00000000000000000000000000000000000F2
:102EE00000000000010000001000000000000000D1
:0C2EF0000024F4000000000000000000BE
:040000050800018965
:00000001FF
